:100000000C9446000C9465000C9465000C946500FB
:100010000C9465000C9465000C9465000C946500CC
:100020000C9465000C9465000C9465000C946500BC
:100030000C9465000C94CE020C9465000C94650041
:100040000C9465000C9465000C9465000C9465009C
:100050000C9465000C9465000C9465000C9465008C
:100060000C9465000C9465000C9465000C9465007C
:100070000C9465000C9465000C9465000C9465006C
:100080000C9465000C9465000C94650011241FBE4F
:10009000CFEFD0E4DEBFCDBF11E0A0E0B1E0EAE1F8
:1000A000FBE000E00BBF02C007900D92AC34B1073B
:1000B000D9F711E0ACE4B1E001C01D92A33AB10759
:1000C000E1F70E942E030C948B050C94000040E095
:1000D00050E00CC000002F5F3F4F02C020E030E036
:1000E000273063E03607B4F34F5F5F4F4817590777
:1000F000ACF308955E9888B95F9A00005F9882E03B
:1001000090E00E946700089581E00E947A000895BF
:10011000813120F481580E947A00089581550E940F
:100120007A00089584E690E00E94670088E30E94C8
:100130007A0086E00E947A008FE00E947A0081E0D7
:100140000E947A008AE090E00E94670008955E9A1B
:1001500088B95F9A00005F9881E090E00E94670094
:100160000895EF92FF920F931F93CF93DF93182F71
:10017000EB010E9484000EC001E0010F812F0E945C
:1001800088007E018FEFE81AF80A88810E94A70094
:10019000102FE70188818111EFCFDF91CF911F915F
:1001A0000F91FF90EF900895CF93C82F8A3019F4E4
:1001B0008DE00E94D4009091C00095FFFCCFC093C9
:1001C000C60080E090E0CF91089580B18095817065
:1001D0008093510180B190E08095909586958170D3
:1001E0008093500180B190E08095909582FB8827A4
:1001F00080F980934F010895CF93DF93EC01813014
:100200009105F1F11CF4009731F043C08230910563
:1002100009F03FC03CC080915101811107C090910D
:100220005001992329F0C1E0D0E002C0C1E0D0E044
:10023000882389F080918D0190918E01A0918F018A
:10024000B09190018093920190939301A0939401B7
:10025000B09395011EC0809150018823D1F0809108
:100260009A0190919B01A0919C01B0919D01809376
:10027000920190939301A0939401B093950109C0CA
:1002800080914E018F3128F0C2E0D0E002C0C3E07F
:10029000D0E0C130D10559F0C230D10599F0209796
:1002A00031F566E171E081E00E94B10020C08091EB
:1002B0004E018F5F80934E0166E371E081E00E9402
:1002C000B10015C00E948400809192019091930129
:1002D000A0919401B091950180939E0190939F010C
:1002E000A093A001B093A10181E080934D01CE01C4
:1002F000DF91CF910895CF92DF92EF92FF926B0141
:100300007C01209158013091590140915A0150913E
:100310005B010E941204882309F457C020E030E0FA
:10032000A901C701B6010E941204811106C0E1E8CB
:10033000F0E080818870808305C0E1E8F0E0808192
:100340008360808328E539E344E75FE3C701B601B2
:100350000E941204882334F48FEF9FEF909399004A
:100360008093980020E034E244EF56E4C701B601E0
:100370000E94240518162CF41092990010929800EF
:1003800018C020E030E040E053E4C701B6010E940D
:1003900028059B01AC0160E074E284EF9AE40E94BE
:1003A00016040E947E046150710970939900609355
:1003B00098001092950010929400C0925801D0922B
:1003C0005901E0925A01F0925B01FF90EF90DF90AB
:1003D000CF900895CF93DF93EC019091510120913C
:1003E0005001392F320F80914F01830F30914D0111
:1003F000332309F43FC0209721F0C130D10539F0F3
:100400000BC0C1E0811101C0C0E0D0E005C0C1E077
:10041000811101C0C0E0D0E0209721F0C130D105AA
:1004200041F028C060E070E080E89FE30E947B011B
:1004300021C0823038F060E070E080E89FE30E94E5
:100440007B0118C0992339F064EA70ED82E893E4E7
:100450000E947B010FC0222339F06BE774ED82E923
:1004600093E40E947B0106C064EA70ED84EA93E4A1
:100470000E947B01CE01DF91CF91089580E48093AB
:1004800090008BE08093910060E070E0CB010E94CF
:100490007B010895109290001092910008958BE0D6
:1004A000809381008DE790E090938900809388008D
:1004B00082E080936F0010928500109284008091FA
:1004C000020190910301A0910401B0910501809374
:1004D000530190935401A0935501B09356018FB7E7
:1004E00080688FBF0895109281000895EF92FF9267
:1004F0001F93CF93DF9310E046C0C12FD0E0CE0111
:10050000880F991F8C0F9D1F880F991F880F991FA7
:10051000FC01E35AFE4F46815781608571858281D7
:100520009381A481B581481759076A077B0778F042
:100530007F01DF010284F385E02D8D919C91099567
:10054000F7019183808316821782108611869E019F
:10055000220F331FC9018C0F9D1F880F991F880F11
:10056000991FFC01E35AFE4F209107018681978174
:10057000A085B185820F911DA11DB11D8683978332
:10058000A087B1871F5F80910601181708F4B5CFC7
:10059000DF91CF911F91FF90EF9008951F920F92DE
:1005A0000FB60F9211240BB60F922F933F934F93D8
:1005B0005F936F937F938F939F93AF93BF93EF93CB
:1005C000FF938091530190915401A0915501B091F6
:1005D00056010197A109B1098093530190935401E9
:1005E000A0935501B0935601892B8A2B8B2B91F444
:1005F0000E9476028091020190910301A091040172
:10060000B09105018093530190935401A09355013B
:10061000B0935601FF91EF91BF91AF919F918F9150
:100620007F916F915F914F913F912F910F900BBEF2
:100630000F900FBE0F901F9018956093020170935A
:10064000030180930401909305016093530170931B
:1006500054018093550190935601089511B88FEF7E
:1006600080B984B913B88AB91BB887B91BB80E947E
:1006700092000E943E02EDE5F1E01182108284E6D4
:1006800090E0A0E0B0E082839383A483B583868367
:100690009783A087B1872CEF30E0338722871586B8
:1006A000148686879787A08BB18B828B938BA48BC4
:1006B000B58B25EE30E0378B268B118E108E828F16
:1006C000938FA48FB58F868F978FA0A3B1A329ECAA
:1006D00033E033A322A315A214A286A397A3A0A755
:1006E000B1A782A793A7A4A7B5A78AEE91E097A781
:1006F00086A764E670E080E090E00E941D030E94FF
:100700004F02FFCF1F93CF93DF9310E003C01F5F13
:100710008456910984369105D4F7D0E002C0DF5F9A
:100720000A978A309105DCF7C0E002C0CF5F0197DD
:1007300018161906DCF381E00E948800812F90E0F2
:10074000C0960E94A70082E00E9488008D2F90E052
:10075000C0960E94A70083E00E9488008C2F90E042
:10076000C0960E94A7008BB1807C8BB985B1807C3C
:1007700085B98BB1807C8BB985B1807C85B98BB113
:10078000807C8BB985B1807C85B9DF91CF911F9139
:10079000089580914D01811103C080E090E008959B
:1007A00080914C018F5F80934C018B3058F01092F8
:1007B0004C018091000190910101019790930101FA
:1007C0008093000180910001909101010E948203B9
:1007D0000895882399F0813099F0823099F0833020
:1007E00099F0843099F0853099F0863099F087300F
:1007F00099F0883099F0893099F0089581E808954A
:1008000087EB089582EC08958CEC089584EB0895AD
:1008100088E9089588E4089583EB089580E80895B1
:1008200080E908959CD008F481E008950CD0D2C0EE
:10083000CAD040F0C1D030F021F45F3F19F0B3C00E
:100840005111FCC0B6C0D7D098F39923C9F35523F2
:10085000B1F3951B550BBB27AA27621773078407B3
:1008600038F09F5F5F4F220F331F441FAA1FA9F369
:1008700033D00E2E3AF0E0E830D091505040E6955B
:10088000001CCAF729D0FE2F27D0660F771F881FBC
:10089000BB1F261737074807AB07B0E809F0BB0BAB
:1008A000802DBF01FF2793585F4F2AF09E3F5105CF
:1008B00068F079C0C3C05F3FECF3983EDCF38695E7
:1008C00077956795B795F7959F5FC9F7880F911D45
:1008D0009695879597F90895E1E0660F771F881F31
:1008E000BB1F621773078407BA0720F0621B730BE4
:1008F000840BBA0BEE1F88F7E095089504D0689436
:10090000B1119CC008957FD088F09F5790F0B92F07
:100910009927B751A0F0D1F0660F771F881F991F54
:100920001AF0BA95C9F712C0B13081F086D0B1E0A3
:10093000089583C0672F782F8827B85F39F0B93FB3
:10094000CCF3869577956795B395D9F73EF4909556
:100950008095709561957F4F8F4F9F4F0895990FA8
:100960000008550FAA0BE0E8FEEF16161706E80779
:10097000F907C0F012161306E407F50798F0621B9A
:10098000730B840B950B39F40A2661F0232B242B6F
:10099000252B21F408950A2609F4A140A6958FEF8E
:1009A000811D811D089597F99F6780E870E060E0E0
:1009B00008959FEF80EC089500240A9416161706F8
:1009C00018060906089500240A9412161306140640
:1009D00005060895092E0394000C11F4882352F0A3
:1009E000BB0F40F4BF2B11F460FF04C06F5F7F4F5B
:1009F0008F4F9F4F089557FD9058440F551F59F042
:100A00005F3F71F04795880F97FB991F61F09F3FFB
:100A100079F087950895121613061406551FF2CF24
:100A20004695F1DF08C0161617061806991FF1CF74
:100A300086957105610508940895E894BB2766279B
:100A40007727CB0197F908958ADF08F48FEF08958F
:100A50000BD0C0CFB1DF28F0B6DF18F0952309F036
:100A6000A2CFA7CF1124EACFC6DFA0F3959FD1F381
:100A7000950F50E0551F629FF001729FBB27F00D4C
:100A8000B11D639FAA27F00DB11DAA1F649F6627A1
:100A9000B00DA11D661F829F2227B00DA11D621FF0
:100AA000739FB00DA11D621F839FA00D611D221FAA
:100AB000749F3327A00D611D231F849F600D211D8E
:100AC000822F762F6A2F11249F5750408AF0E1F031
:100AD00088234AF0EE0FFF1FBB1F661F771F881F7A
:100AE00091505040A9F79E3F510570F05CCFA6CFC2
:100AF0005F3FECF3983EDCF3869577956795B79565
:100B0000F795E7959F5FC1F7FE2B880F911D96958E
:0A0B1000879597F90895F894FFCF38
:100B1A00F40101000000046400000002000000006B
:100B2A00D4000000000043686F6F7365204D6F6F3B
:100B3A006465202020202020456173793D412F489B
:100B4A006172643D4200426F6D62436F64653A2090
:0C0B5A00202020202020424D374C31008C
:00000001FF
