:100000000C9446000C9465000C9465000C946500FB
:100010000C9465000C9465000C9465000C946500CC
:100020000C9465000C9465000C9465000C946500BC
:100030000C9465000C94D7020C9465000C94650038
:100040000C9465000C9465000C9465000C9465009C
:100050000C9465000C9465000C9465000C9465008C
:100060000C9465000C9465000C9465000C9465007C
:100070000C9465000C9465000C9465000C9465006C
:100080000C9465000C9465000C94650011241FBE4F
:10009000CFEFD0E4DEBFCDBF11E0A0E0B1E0E0EFF4
:1000A000F9E000E00BBF02C007900D92AA34B1073F
:1000B000D9F711E0AAE4B1E001C01D92A439B1075B
:1000C000E1F70E9437030C94F6040C94000040E022
:1000D00050E00CC000002F5F3F4F02C020E030E036
:1000E000273063E03607B4F34F5F5F4F4817590777
:1000F000ACF308955E9888B95F9A00005F9882E03B
:1001000090E00E946700089581E00E947A000895BF
:10011000813120F481580E947A00089581550E940F
:100120007A00089584E690E00E94670088E30E94C8
:100130007A0086E00E947A008FE00E947A0081E0D7
:100140000E947A008AE090E00E94670008955E9A1B
:1001500088B95F9A00005F9881E090E00E94670094
:100160000895EF92FF920F931F93CF93DF93182F71
:10017000EB010E9484000EC001E0010F812F0E945C
:1001800088007E018FEFE81AF80A88810E94A70094
:10019000102FE70188818111EFCFDF91CF911F915F
:1001A0000F91FF90EF900895CF93C82F8A3019F4E4
:1001B0008DE00E94D4009091C00095FFFCCFC093C9
:1001C000C60080E090E0CF91089580B18095817065
:1001D00080934E0180B190E08095909586958170D6
:1001E00080934D0180B190E08095909582FB8827A7
:1001F00080F980934C010895CF93DF93EC01813017
:100200009105F1F11CF4009731F043C08230910563
:1002100009F03FC03CC080914E01811107C0909110
:100220004D01992329F0C1E0D0E002C0C1E0D0E047
:10023000882389F080917E0190917F01A0918001B7
:10024000B09181018093830190938401A0938501F3
:10025000B09386011EC080914D018823D1F080911A
:100260008B0190918C01A0918D01B0918E018093B2
:10027000830190938401A0938501B093860109C006
:1002800080914B018F3128F0C2E0D0E002C0C3E082
:10029000D0E0C130D10559F0C230D10599F0209796
:1002A00031F564E171E081E00E94B10020C08091ED
:1002B0004B018F5F80934B0164E371E081E00E940A
:1002C000B10015C00E948400809183019091840147
:1002D000A0918501B091860180938F019093900148
:1002E000A0939101B093920181E080934A01CE01E5
:1002F000DF91CF910895CF92DF92EF92FF926B0141
:100300007C01209155013091560140915701509147
:1003100058010E947D03882309F457C020E030E093
:10032000A901C701B6010E947D03811106C0E1E861
:10033000F0E080818870808305C0E1E8F0E0808192
:100340008360808328E539E344E75FE3C701B601B2
:100350000E947D03882334F48FEF9FEF90939900E0
:100360008093980020E034E244EF56E4C701B601E0
:100370000E948F0418162CF4109299001092980085
:1003800018C020E030E040E053E4C701B6010E940D
:1003900093049B01AC0160E074E284EF9AE40E9454
:1003A00081030E94E9036150710970939900609381
:1003B00098001092950010929400C0925501D0922E
:1003C0005601E0925701F0925801FF90EF90DF90B4
:1003D000CF900895CF93DF93EC0190914E0120913F
:1003E0004D01392F320F80914C01830F30914A011A
:1003F000332309F448C0209721F0C130D10539F0EA
:100400000BC0C1E0811101C0C0E0D0E005C0C1E077
:10041000811101C0C0E0D0E0209721F0C130D105AA
:1004200091F031C080914F01882339F060E070E095
:1004300081EE93E40E947B0126C060E070E0CB0176
:100440000E947B0120C0823030F060E070E0CB0180
:100450000E947B0118C0992339F064EA70ED82E8AC
:1004600093E40E947B010FC0222339F06BE774ED07
:1004700082E993E40E947B0106C064EA70ED84EA9D
:1004800093E40E947B01CE01DF91CF91089580E437
:10049000809390008BE08093910060E070E0CB014E
:1004A0000E947B010895109290001092910008958F
:1004B0008BE0809381008DE790E09093890080939A
:1004C000880082E080936F00109285001092840073
:1004D0008091000190910101A0910201B09103016E
:1004E0008093500190935101A0935201B093530116
:1004F0008FB780688FBF0895109281000895EF92A2
:10050000FF921F93CF93DF9310E046C0C12FD0E03E
:10051000CE01880F991F8C0F9D1F880F991F880F80
:10052000991FFC01E65AFE4F46815781608571850F
:1005300082819381A481B581481759076A077B0797
:1005400078F07F01DF010284F385E02D8D919C918D
:100550000995F70191838083168217821086118690
:100560009E01220F331FC9018C0F9D1F880F991FF9
:10057000880F991FFC01E65AFE4F209105018681E4
:100580009781A085B185820F911DA11DB11D868324
:100590009783A087B1871F5F80910401181708F423
:1005A000B5CFDF91CF911F91FF90EF9008951F92EB
:1005B0000F920FB60F9211240BB60F922F933F9309
:1005C0004F935F936F937F938F939F93AF93BF935B
:1005D000EF93FF938091500190915101A0915201AE
:1005E000B09153010197A109B109809350019093F3
:1005F0005101A0935201B0935301892B8A2B8B2B6D
:1006000091F40E947F028091000190910101A091DC
:100610000201B09103018093500190935101A09386
:100620005201B0935301FF91EF91BF91AF919F9110
:100630008F917F916F915F914F913F912F910F908B
:100640000BBE0F900FBE0F901F9018956093000186
:100650007093010180930201909303016093500114
:10066000709351018093520190935301089511B8F2
:100670008FEF80B984B913B88AB91BB887B91BB892
:100680000E9492000E944702EAE5F1E01182108286
:1006900084E690E0A0E0B0E082839383A483B583F6
:1006A00086839783A087B1872CEF30E0338722873A
:1006B0001586148686879787A08BB18B828B938B48
:1006C000A48BB58B25EE30E0378B268B118E108EE8
:1006D000828F938FA48FB58F868F978FA0A3B1A39E
:1006E0008AEE91E093A382A364E670E080E090E05C
:1006F0000E9426030E945802FFCF9CD008F481E09C
:1007000008950CD0D2C0CAD040F0C1D030F021F44E
:100710005F3F19F0B3C05111FCC0B6C0D7D098F3F9
:100720009923C9F35523B1F3951B550BBB27AA2772
:1007300062177307840738F09F5F5F4F220F331FE4
:10074000441FAA1FA9F333D00E2E3AF0E0E830D0B0
:1007500091505040E695001CCAF729D0FE2F27D0B3
:10076000660F771F881FBB1F261737074807AB0781
:10077000B0E809F0BB0B802DBF01FF2793585F4FF6
:100780002AF09E3F510568F079C0C3C05F3FECF38B
:10079000983EDCF3869577956795B795F7959F5FBB
:1007A000C9F7880F911D9695879597F90895E1E00F
:1007B000660F771F881FBB1F621773078407BA076E
:1007C00020F0621B730B840BBA0BEE1F88F7E095C9
:1007D000089504D06894B1119CC008957FD088F02A
:1007E0009F5790F0B92F9927B751A0F0D1F0660F1D
:1007F000771F881F991F1AF0BA95C9F712C0B13038
:1008000081F086D0B1E0089583C0672F782F8827C4
:10081000B85F39F0B93FCCF3869577956795B39576
:10082000D9F73EF490958095709561957F4F8F4FE5
:100830009F4F0895990F0008550FAA0BE0E8FEEFAF
:1008400016161706E807F907C0F012161306E40794
:10085000F50798F0621B730B840B950B39F40A268D
:1008600061F0232B242B252B21F408950A2609F46B
:10087000A140A6958FEF811D811D089597F99F676F
:1008800080E870E060E008959FEF80EC0895002418
:100890000A941616170618060906089500240A94E5
:1008A00012161306140605060895092E0394000C6B
:1008B00011F4882352F0BB0F40F4BF2B11F460FFFA
:1008C00004C06F5F7F4F8F4F9F4F089557FD905823
:1008D000440F551F59F05F3F71F04795880F97FB04
:1008E000991F61F09F3F79F08795089512161306BE
:1008F0001406551FF2CF4695F1DF08C016161706ED
:100900001806991FF1CF8695710561050894089521
:10091000E894BB2766277727CB0197F908958ADFEC
:1009200008F48FEF08950BD0C0CFB1DF28F0B6DF09
:1009300018F0952309F0A2CFA7CF1124EACFC6DF84
:10094000A0F3959FD1F3950F50E0551F629FF001E2
:10095000729FBB27F00DB11D639FAA27F00DB11D3B
:10096000AA1F649F6627B00DA11D661F829F2227C4
:10097000B00DA11D621F739FB00DA11D621F839F4B
:10098000A00D611D221F749F3327A00D611D231F21
:10099000849F600D211D822F762F6A2F11249F576F
:1009A00050408AF0E1F088234AF0EE0FFF1FBB1F92
:1009B000661F771F881F91505040A9F79E3F510531
:1009C00070F05CCFA6CF5F3FECF3983EDCF38695EA
:1009D00077956795B795F795E7959F5FC1F7FE2BDC
:1009E000880F911D9695879597F90895F894FFCFF4
:1009F0000100000003640000000200000000D400B9
:100A00000000000043686F6F7365204D6F6F646571
:100A1000202020202020456173793D412F486172BC
:100A2000643D4200426F6D62436F64653A2020204E
:0A0A300020202020424D374C3100F9
:00000001FF
